{
  "address": "0x72bb9c7ffbE2Ed234e53bc64862DdA6d9fFF333b",
  "abi": [
    {
      "inputs": [
        {
          "internalType": "string",
          "name": "_name",
          "type": "string"
        },
        {
          "internalType": "string",
          "name": "_symbol",
          "type": "string"
        },
        {
          "internalType": "string[]",
          "name": "tokenUris",
          "type": "string[]"
        }
      ],
      "stateMutability": "nonpayable",
      "type": "constructor"
    },
    {
      "inputs": [],
      "name": "NFT_AlreadyInitialized",
      "type": "error"
    },
    {
      "inputs": [],
      "name": "NFT_NotAnOwner",
      "type": "error"
    },
    {
      "inputs": [],
      "name": "NFT_TransferFailed",
      "type": "error"
    },
    {
      "anonymous": false,
      "inputs": [
        {
          "indexed": true,
          "internalType": "address",
          "name": "owner",
          "type": "address"
        },
        {
          "indexed": true,
          "internalType": "address",
          "name": "approved",
          "type": "address"
        },
        {
          "indexed": true,
          "internalType": "uint256",
          "name": "tokenId",
          "type": "uint256"
        }
      ],
      "name": "Approval",
      "type": "event"
    },
    {
      "anonymous": false,
      "inputs": [
        {
          "indexed": true,
          "internalType": "address",
          "name": "owner",
          "type": "address"
        },
        {
          "indexed": true,
          "internalType": "address",
          "name": "operator",
          "type": "address"
        },
        {
          "indexed": false,
          "internalType": "bool",
          "name": "approved",
          "type": "bool"
        }
      ],
      "name": "ApprovalForAll",
      "type": "event"
    },
    {
      "anonymous": false,
      "inputs": [
        {
          "indexed": true,
          "internalType": "uint256",
          "name": "tokenId",
          "type": "uint256"
        },
        {
          "indexed": false,
          "internalType": "address",
          "name": "minter",
          "type": "address"
        }
      ],
      "name": "NFTMinted",
      "type": "event"
    },
    {
      "anonymous": false,
      "inputs": [
        {
          "indexed": true,
          "internalType": "address",
          "name": "from",
          "type": "address"
        },
        {
          "indexed": true,
          "internalType": "address",
          "name": "to",
          "type": "address"
        },
        {
          "indexed": true,
          "internalType": "uint256",
          "name": "tokenId",
          "type": "uint256"
        }
      ],
      "name": "Transfer",
      "type": "event"
    },
    {
      "inputs": [
        {
          "internalType": "address",
          "name": "to",
          "type": "address"
        },
        {
          "internalType": "uint256",
          "name": "tokenId",
          "type": "uint256"
        }
      ],
      "name": "approve",
      "outputs": [],
      "stateMutability": "nonpayable",
      "type": "function"
    },
    {
      "inputs": [
        {
          "internalType": "address",
          "name": "owner",
          "type": "address"
        }
      ],
      "name": "balanceOf",
      "outputs": [
        {
          "internalType": "uint256",
          "name": "",
          "type": "uint256"
        }
      ],
      "stateMutability": "view",
      "type": "function"
    },
    {
      "inputs": [
        {
          "internalType": "uint256",
          "name": "tokenId",
          "type": "uint256"
        }
      ],
      "name": "getApproved",
      "outputs": [
        {
          "internalType": "address",
          "name": "",
          "type": "address"
        }
      ],
      "stateMutability": "view",
      "type": "function"
    },
    {
      "inputs": [],
      "name": "getInitialized",
      "outputs": [
        {
          "internalType": "bool",
          "name": "",
          "type": "bool"
        }
      ],
      "stateMutability": "view",
      "type": "function"
    },
    {
      "inputs": [],
      "name": "getTokenCounter",
      "outputs": [
        {
          "internalType": "uint256",
          "name": "",
          "type": "uint256"
        }
      ],
      "stateMutability": "view",
      "type": "function"
    },
    {
      "inputs": [
        {
          "internalType": "uint256",
          "name": "index",
          "type": "uint256"
        }
      ],
      "name": "getTokenUri",
      "outputs": [
        {
          "internalType": "string",
          "name": "",
          "type": "string"
        }
      ],
      "stateMutability": "view",
      "type": "function"
    },
    {
      "inputs": [
        {
          "internalType": "address",
          "name": "owner",
          "type": "address"
        },
        {
          "internalType": "address",
          "name": "operator",
          "type": "address"
        }
      ],
      "name": "isApprovedForAll",
      "outputs": [
        {
          "internalType": "bool",
          "name": "",
          "type": "bool"
        }
      ],
      "stateMutability": "view",
      "type": "function"
    },
    {
      "inputs": [],
      "name": "mintRequestedNFT",
      "outputs": [],
      "stateMutability": "nonpayable",
      "type": "function"
    },
    {
      "inputs": [],
      "name": "name",
      "outputs": [
        {
          "internalType": "string",
          "name": "",
          "type": "string"
        }
      ],
      "stateMutability": "view",
      "type": "function"
    },
    {
      "inputs": [
        {
          "internalType": "uint256",
          "name": "tokenId",
          "type": "uint256"
        }
      ],
      "name": "ownerOf",
      "outputs": [
        {
          "internalType": "address",
          "name": "",
          "type": "address"
        }
      ],
      "stateMutability": "view",
      "type": "function"
    },
    {
      "inputs": [
        {
          "internalType": "address",
          "name": "from",
          "type": "address"
        },
        {
          "internalType": "address",
          "name": "to",
          "type": "address"
        },
        {
          "internalType": "uint256",
          "name": "tokenId",
          "type": "uint256"
        }
      ],
      "name": "safeTransferFrom",
      "outputs": [],
      "stateMutability": "nonpayable",
      "type": "function"
    },
    {
      "inputs": [
        {
          "internalType": "address",
          "name": "from",
          "type": "address"
        },
        {
          "internalType": "address",
          "name": "to",
          "type": "address"
        },
        {
          "internalType": "uint256",
          "name": "tokenId",
          "type": "uint256"
        },
        {
          "internalType": "bytes",
          "name": "data",
          "type": "bytes"
        }
      ],
      "name": "safeTransferFrom",
      "outputs": [],
      "stateMutability": "nonpayable",
      "type": "function"
    },
    {
      "inputs": [
        {
          "internalType": "address",
          "name": "operator",
          "type": "address"
        },
        {
          "internalType": "bool",
          "name": "approved",
          "type": "bool"
        }
      ],
      "name": "setApprovalForAll",
      "outputs": [],
      "stateMutability": "nonpayable",
      "type": "function"
    },
    {
      "inputs": [
        {
          "internalType": "bytes4",
          "name": "interfaceId",
          "type": "bytes4"
        }
      ],
      "name": "supportsInterface",
      "outputs": [
        {
          "internalType": "bool",
          "name": "",
          "type": "bool"
        }
      ],
      "stateMutability": "view",
      "type": "function"
    },
    {
      "inputs": [],
      "name": "symbol",
      "outputs": [
        {
          "internalType": "string",
          "name": "",
          "type": "string"
        }
      ],
      "stateMutability": "view",
      "type": "function"
    },
    {
      "inputs": [
        {
          "internalType": "uint256",
          "name": "tokenId",
          "type": "uint256"
        }
      ],
      "name": "tokenURI",
      "outputs": [
        {
          "internalType": "string",
          "name": "",
          "type": "string"
        }
      ],
      "stateMutability": "view",
      "type": "function"
    },
    {
      "inputs": [
        {
          "internalType": "address",
          "name": "from",
          "type": "address"
        },
        {
          "internalType": "address",
          "name": "to",
          "type": "address"
        },
        {
          "internalType": "uint256",
          "name": "tokenId",
          "type": "uint256"
        }
      ],
      "name": "transferFrom",
      "outputs": [],
      "stateMutability": "nonpayable",
      "type": "function"
    },
    {
      "inputs": [],
      "name": "withdraw",
      "outputs": [],
      "stateMutability": "nonpayable",
      "type": "function"
    }
  ],
  "transactionHash": "0xd6aa4c5d7d86258f625be597371232e32c3c8cf383e1292665607a527649c254",
  "args": [
    "Nike Air Collection",
    "NC",
    [
      "ipfs://QmaVkBn2tKmjbhphU7eyztbvSQU5EXDdqRyXZtRhSGgJGo",
      "ipfs://QmYQC5aGZu2PTH8XzbJrbDnvhj3gVs7ya33H9mqUNvST3d",
      "ipfs://QmZYmH5iDbD6v3U2ixoVAjioSzvWJszDzYdbeCLquGSpVm",
      "ipfs://QmQp6uhmW7FJu1HnoagEtmgv1yYi62TUmdE4cCVoX6oBNQ"
    ]
  ],
  "numDeployments": 1,
  "solcInputHash": "2639bffa77d55e0bf4e2e5b2b7526824",
  "bytecode": "0x60806040523480156200001157600080fd5b506040516200386838038062003868833981810160405281019062000037919062000605565b600a80546200004690620006ed565b80601f01602080910402602001604051908101604052809291908181526020018280546200007490620006ed565b8015620000c55780601f106200009957610100808354040283529160200191620000c5565b820191906000526020600020905b815481529060010190602001808311620000a757829003601f168201915b5050505050600b8054620000d990620006ed565b80601f01602080910402602001604051908101604052809291908181526020018280546200010790620006ed565b8015620001585780601f106200012c5761010080835404028352916020019162000158565b820191906000526020600020905b8154815290600101906020018083116200013a57829003601f168201915b505050505081600090816200016e919062000909565b50806001908162000180919062000909565b50505033600c60006101000a81548173ffffffffffffffffffffffffffffffffffffffff021916908373ffffffffffffffffffffffffffffffffffffffff160217905550600060078190555082600a9081620001dd919062000909565b5081600b9081620001ef919062000909565b5062000201816200020a60201b60201c565b505050620009f0565b600960009054906101000a900460ff161562000252576040517fa850508600000000000000000000000000000000000000000000000000000000815260040160405180910390fd5b80600890805190602001906200026a92919062000289565b506001600960006101000a81548160ff02191690831515021790555050565b828054828255906000526020600020908101928215620002d6579160200282015b82811115620002d5578251829081620002c4919062000909565b5091602001919060010190620002aa565b5b509050620002e59190620002e9565b5090565b5b808211156200030d576000818162000303919062000311565b50600101620002ea565b5090565b5080546200031f90620006ed565b6000825580601f1062000333575062000354565b601f01602090049060005260206000209081019062000353919062000357565b5b50565b5b808211156200037257600081600090555060010162000358565b5090565b6000604051905090565b600080fd5b600080fd5b600080fd5b600080fd5b6000601f19601f8301169050919050565b7f4e487b7100000000000000000000000000000000000000000000000000000000600052604160045260246000fd5b620003df8262000394565b810181811067ffffffffffffffff82111715620004015762000400620003a5565b5b80604052505050565b60006200041662000376565b9050620004248282620003d4565b919050565b600067ffffffffffffffff821115620004475762000446620003a5565b5b620004528262000394565b9050602081019050919050565b60005b838110156200047f57808201518184015260208101905062000462565b60008484015250505050565b6000620004a26200049c8462000429565b6200040a565b905082815260208101848484011115620004c157620004c06200038f565b5b620004ce8482856200045f565b509392505050565b600082601f830112620004ee57620004ed6200038a565b5b8151620005008482602086016200048b565b91505092915050565b600067ffffffffffffffff821115620005275762000526620003a5565b5b602082029050602081019050919050565b600080fd5b6000620005546200054e8462000509565b6200040a565b905080838252602082019050602084028301858111156200057a576200057962000538565b5b835b81811015620005c857805167ffffffffffffffff811115620005a357620005a26200038a565b5b808601620005b28982620004d6565b855260208501945050506020810190506200057c565b5050509392505050565b600082601f830112620005ea57620005e96200038a565b5b8151620005fc8482602086016200053d565b91505092915050565b60008060006060848603121562000621576200062062000380565b5b600084015167ffffffffffffffff81111562000642576200064162000385565b5b6200065086828701620004d6565b935050602084015167ffffffffffffffff81111562000674576200067362000385565b5b6200068286828701620004d6565b925050604084015167ffffffffffffffff811115620006a657620006a562000385565b5b620006b486828701620005d2565b9150509250925092565b7f4e487b7100000000000000000000000000000000000000000000000000000000600052602260045260246000fd5b600060028204905060018216806200070657607f821691505b6020821081036200071c576200071b620006be565b5b50919050565b600081519050919050565b60008190508160005260206000209050919050565b60006020601f8301049050919050565b600082821b905092915050565b600060088302620007917fffffffffffffffffffffffffffffffffffffffffffffffffffffffffffffffff8262000752565b6200079d868362000752565b95508019841693508086168417925050509392505050565b6000819050919050565b6000819050919050565b6000620007ea620007e4620007de84620007b5565b620007bf565b620007b5565b9050919050565b6000819050919050565b6200080683620007c9565b6200081e6200081582620007f1565b8484546200075f565b825550505050565b600090565b6200083562000826565b62000842818484620007fb565b505050565b5b818110156200086a576200085e6000826200082b565b60018101905062000848565b5050565b601f821115620008b95762000883816200072d565b6200088e8462000742565b810160208510156200089e578190505b620008b6620008ad8562000742565b83018262000847565b50505b505050565b600082821c905092915050565b6000620008de60001984600802620008be565b1980831691505092915050565b6000620008f98383620008cb565b9150826002028217905092915050565b620009148262000722565b67ffffffffffffffff81111562000930576200092f620003a5565b5b6200093c8254620006ed565b620009498282856200086e565b600060209050601f8311600181146200098157600084156200096c578287015190505b620009788582620008eb565b865550620009e8565b601f19841662000991866200072d565b60005b82811015620009bb5784890151825560018201915060208501945060208101905062000994565b86831015620009db5784890151620009d7601f891682620008cb565b8355505b6001600288020188555050505b505050505050565b612e688062000a006000396000f3fe608060405234801561001057600080fd5b50600436106101165760003560e01c80636e02007d116100a2578063a22cb46511610071578063a22cb465146102cd578063b88d4fde146102e9578063c87b56dd14610305578063e985e9c514610335578063ee89dab41461036557610116565b80636e02007d1461023157806370a082311461024f5780638ad913451461027f57806395d89b41146102af57610116565b806323b872dd116100e957806323b872dd146101b55780633ccfd60b146101d157806342842e0e146101db57806351cc87e8146101f75780636352211e1461020157610116565b806301ffc9a71461011b57806306fdde031461014b578063081812fc14610169578063095ea7b314610199575b600080fd5b61013560048036038101906101309190611d7c565b610383565b6040516101429190611dc4565b60405180910390f35b610153610465565b6040516101609190611e6f565b60405180910390f35b610183600480360381019061017e9190611ec7565b6104f7565b6040516101909190611f35565b60405180910390f35b6101b360048036038101906101ae9190611f7c565b61053d565b005b6101cf60048036038101906101ca9190611fbc565b610654565b005b6101d96106b4565b005b6101f560048036038101906101f09190611fbc565b6107ec565b005b6101ff61080c565b005b61021b60048036038101906102169190611ec7565b6109af565b6040516102289190611f35565b60405180910390f35b610239610a35565b604051610246919061201e565b60405180910390f35b61026960048036038101906102649190612039565b610a3f565b604051610276919061201e565b60405180910390f35b61029960048036038101906102949190611ec7565b610af6565b6040516102a69190611e6f565b60405180910390f35b6102b7610ba6565b6040516102c49190611e6f565b60405180910390f35b6102e760048036038101906102e29190612092565b610c38565b005b61030360048036038101906102fe9190612207565b610c4e565b005b61031f600480360381019061031a9190611ec7565b610cb0565b60405161032c9190611e6f565b60405180910390f35b61034f600480360381019061034a919061228a565b610dc2565b60405161035c9190611dc4565b60405180910390f35b61036d610e56565b60405161037a9190611dc4565b60405180910390f35b60007f80ac58cd000000000000000000000000000000000000000000000000000000007bffffffffffffffffffffffffffffffffffffffffffffffffffffffff1916827bffffffffffffffffffffffffffffffffffffffffffffffffffffffff1916148061044e57507f5b5e139f000000000000000000000000000000000000000000000000000000007bffffffffffffffffffffffffffffffffffffffffffffffffffffffff1916827bffffffffffffffffffffffffffffffffffffffffffffffffffffffff1916145b8061045e575061045d82610e6d565b5b9050919050565b606060008054610474906122f9565b80601f01602080910402602001604051908101604052809291908181526020018280546104a0906122f9565b80156104ed5780601f106104c2576101008083540402835291602001916104ed565b820191906000526020600020905b8154815290600101906020018083116104d057829003601f168201915b5050505050905090565b600061050282610ed7565b6004600083815260200190815260200160002060009054906101000a900473ffffffffffffffffffffffffffffffffffffffff169050919050565b6000610548826109af565b90508073ffffffffffffffffffffffffffffffffffffffff168373ffffffffffffffffffffffffffffffffffffffff16036105b8576040517f08c379a00000000000000000000000000000000000000000000000000000000081526004016105af9061239c565b60405180910390fd5b8073ffffffffffffffffffffffffffffffffffffffff166105d7610f22565b73ffffffffffffffffffffffffffffffffffffffff161480610606575061060581610600610f22565b610dc2565b5b610645576040517f08c379a000000000000000000000000000000000000000000000000000000000815260040161063c9061242e565b60405180910390fd5b61064f8383610f2a565b505050565b61066561065f610f22565b82610fe3565b6106a4576040517f08c379a000000000000000000000000000000000000000000000000000000000815260040161069b906124c0565b60405180910390fd5b6106af838383611078565b505050565b600c60009054906101000a900473ffffffffffffffffffffffffffffffffffffffff1673ffffffffffffffffffffffffffffffffffffffff163373ffffffffffffffffffffffffffffffffffffffff16036107b857600047905060003373ffffffffffffffffffffffffffffffffffffffff168260405161073490612511565b60006040518083038185875af1925050503d8060008114610771576040519150601f19603f3d011682016040523d82523d6000602084013e610776565b606091505b50509050806107b1576040517f521cc53700000000000000000000000000000000000000000000000000000000815260040160405180910390fd5b50506107ea565b6040517f3f2978a400000000000000000000000000000000000000000000000000000000815260040160405180910390fd5b565b61080783838360405180602001604052806000815250610c4e565b505050565b600c60009054906101000a900473ffffffffffffffffffffffffffffffffffffffff1673ffffffffffffffffffffffffffffffffffffffff163373ffffffffffffffffffffffffffffffffffffffff160361097b57600033905060006007549050600160075461087c9190612555565b60078190555061088c8282611371565b61093c81600883815481106108a4576108a3612589565b5b9060005260206000200180546108b9906122f9565b80601f01602080910402602001604051908101604052809291908181526020018280546108e5906122f9565b80156109325780601f1061090757610100808354040283529160200191610932565b820191906000526020600020905b81548152906001019060200180831161091557829003601f168201915b505050505061138f565b807f0176f203df400d7bd5f1b1c9ef36c16709bf3b5d9fd35f000a6bae32393f66c38360405161096c9190611f35565b60405180910390a250506109ad565b6040517f3f2978a400000000000000000000000000000000000000000000000000000000815260040160405180910390fd5b565b6000806109bb836113fc565b9050600073ffffffffffffffffffffffffffffffffffffffff168173ffffffffffffffffffffffffffffffffffffffff1603610a2c576040517f08c379a0000000000000000000000000000000000000000000000000000000008152600401610a2390612604565b60405180910390fd5b80915050919050565b6000600754905090565b60008073ffffffffffffffffffffffffffffffffffffffff168273ffffffffffffffffffffffffffffffffffffffff1603610aaf576040517f08c379a0000000000000000000000000000000000000000000000000000000008152600401610aa690612696565b60405180910390fd5b600360008373ffffffffffffffffffffffffffffffffffffffff1673ffffffffffffffffffffffffffffffffffffffff168152602001908152602001600020549050919050565b606060088281548110610b0c57610b0b612589565b5b906000526020600020018054610b21906122f9565b80601f0160208091040260200160405190810160405280929190818152602001828054610b4d906122f9565b8015610b9a5780601f10610b6f57610100808354040283529160200191610b9a565b820191906000526020600020905b815481529060010190602001808311610b7d57829003601f168201915b50505050509050919050565b606060018054610bb5906122f9565b80601f0160208091040260200160405190810160405280929190818152602001828054610be1906122f9565b8015610c2e5780601f10610c0357610100808354040283529160200191610c2e565b820191906000526020600020905b815481529060010190602001808311610c1157829003601f168201915b5050505050905090565b610c4a610c43610f22565b8383611439565b5050565b610c5f610c59610f22565b83610fe3565b610c9e576040517f08c379a0000000000000000000000000000000000000000000000000000000008152600401610c95906124c0565b60405180910390fd5b610caa848484846115a5565b50505050565b6060610cbb82610ed7565b6000600660008481526020019081526020016000208054610cdb906122f9565b80601f0160208091040260200160405190810160405280929190818152602001828054610d07906122f9565b8015610d545780601f10610d2957610100808354040283529160200191610d54565b820191906000526020600020905b815481529060010190602001808311610d3757829003601f168201915b505050505090506000610d65611601565b90506000815103610d7a578192505050610dbd565b600082511115610daf578082604051602001610d979291906126f2565b60405160208183030381529060405292505050610dbd565b610db884611618565b925050505b919050565b6000600560008473ffffffffffffffffffffffffffffffffffffffff1673ffffffffffffffffffffffffffffffffffffffff16815260200190815260200160002060008373ffffffffffffffffffffffffffffffffffffffff1673ffffffffffffffffffffffffffffffffffffffff16815260200190815260200160002060009054906101000a900460ff16905092915050565b6000600960009054906101000a900460ff16905090565b60007f01ffc9a7000000000000000000000000000000000000000000000000000000007bffffffffffffffffffffffffffffffffffffffffffffffffffffffff1916827bffffffffffffffffffffffffffffffffffffffffffffffffffffffff1916149050919050565b610ee081611680565b610f1f576040517f08c379a0000000000000000000000000000000000000000000000000000000008152600401610f1690612604565b60405180910390fd5b50565b600033905090565b816004600083815260200190815260200160002060006101000a81548173ffffffffffffffffffffffffffffffffffffffff021916908373ffffffffffffffffffffffffffffffffffffffff160217905550808273ffffffffffffffffffffffffffffffffffffffff16610f9d836109af565b73ffffffffffffffffffffffffffffffffffffffff167f8c5be1e5ebec7d5bd14f71427d1e84f3dd0314c0f7b2291e5b200ac8c7c3b92560405160405180910390a45050565b600080610fef836109af565b90508073ffffffffffffffffffffffffffffffffffffffff168473ffffffffffffffffffffffffffffffffffffffff16148061103157506110308185610dc2565b5b8061106f57508373ffffffffffffffffffffffffffffffffffffffff16611057846104f7565b73ffffffffffffffffffffffffffffffffffffffff16145b91505092915050565b8273ffffffffffffffffffffffffffffffffffffffff16611098826109af565b73ffffffffffffffffffffffffffffffffffffffff16146110ee576040517f08c379a00000000000000000000000000000000000000000000000000000000081526004016110e590612788565b60405180910390fd5b600073ffffffffffffffffffffffffffffffffffffffff168273ffffffffffffffffffffffffffffffffffffffff160361115d576040517f08c379a00000000000000000000000000000000000000000000000000000000081526004016111549061281a565b60405180910390fd5b61116a83838360016116c1565b8273ffffffffffffffffffffffffffffffffffffffff1661118a826109af565b73ffffffffffffffffffffffffffffffffffffffff16146111e0576040517f08c379a00000000000000000000000000000000000000000000000000000000081526004016111d790612788565b60405180910390fd5b6004600082815260200190815260200160002060006101000a81549073ffffffffffffffffffffffffffffffffffffffff02191690556001600360008573ffffffffffffffffffffffffffffffffffffffff1673ffffffffffffffffffffffffffffffffffffffff168152602001908152602001600020600082825403925050819055506001600360008473ffffffffffffffffffffffffffffffffffffffff1673ffffffffffffffffffffffffffffffffffffffff16815260200190815260200160002060008282540192505081905550816002600083815260200190815260200160002060006101000a81548173ffffffffffffffffffffffffffffffffffffffff021916908373ffffffffffffffffffffffffffffffffffffffff160217905550808273ffffffffffffffffffffffffffffffffffffffff168473ffffffffffffffffffffffffffffffffffffffff167fddf252ad1be2c89b69c2b068fc378daa952ba7f163c4a11628f55a4df523b3ef60405160405180910390a461136c83838360016116c7565b505050565b61138b8282604051806020016040528060008152506116cd565b5050565b61139882611680565b6113d7576040517f08c379a00000000000000000000000000000000000000000000000000000000081526004016113ce906128ac565b60405180910390fd5b806006600084815260200190815260200160002090816113f79190612a78565b505050565b60006002600083815260200190815260200160002060009054906101000a900473ffffffffffffffffffffffffffffffffffffffff169050919050565b8173ffffffffffffffffffffffffffffffffffffffff168373ffffffffffffffffffffffffffffffffffffffff16036114a7576040517f08c379a000000000000000000000000000000000000000000000000000000000815260040161149e90612b96565b60405180910390fd5b80600560008573ffffffffffffffffffffffffffffffffffffffff1673ffffffffffffffffffffffffffffffffffffffff16815260200190815260200160002060008473ffffffffffffffffffffffffffffffffffffffff1673ffffffffffffffffffffffffffffffffffffffff16815260200190815260200160002060006101000a81548160ff0219169083151502179055508173ffffffffffffffffffffffffffffffffffffffff168373ffffffffffffffffffffffffffffffffffffffff167f17307eab39ab6107e8899845ad3d59bd9653f200f220920489ca2b5937696c31836040516115989190611dc4565b60405180910390a3505050565b6115b0848484611078565b6115bc84848484611728565b6115fb576040517f08c379a00000000000000000000000000000000000000000000000000000000081526004016115f290612c28565b60405180910390fd5b50505050565b606060405180602001604052806000815250905090565b606061162382610ed7565b600061162d611601565b9050600081511161164d5760405180602001604052806000815250611678565b80611657846118af565b6040516020016116689291906126f2565b6040516020818303038152906040525b915050919050565b60008073ffffffffffffffffffffffffffffffffffffffff166116a2836113fc565b73ffffffffffffffffffffffffffffffffffffffff1614159050919050565b50505050565b50505050565b6116d7838361197d565b6116e46000848484611728565b611723576040517f08c379a000000000000000000000000000000000000000000000000000000000815260040161171a90612c28565b60405180910390fd5b505050565b60006117498473ffffffffffffffffffffffffffffffffffffffff16611b9a565b156118a2578373ffffffffffffffffffffffffffffffffffffffff1663150b7a02611772610f22565b8786866040518563ffffffff1660e01b81526004016117949493929190612c9d565b6020604051808303816000875af19250505080156117d057506040513d601f19601f820116820180604052508101906117cd9190612cfe565b60015b611852573d8060008114611800576040519150601f19603f3d011682016040523d82523d6000602084013e611805565b606091505b50600081510361184a576040517f08c379a000000000000000000000000000000000000000000000000000000000815260040161184190612c28565b60405180910390fd5b805181602001fd5b63150b7a0260e01b7bffffffffffffffffffffffffffffffffffffffffffffffffffffffff1916817bffffffffffffffffffffffffffffffffffffffffffffffffffffffff1916149150506118a7565b600190505b949350505050565b6060600060016118be84611bbd565b01905060008167ffffffffffffffff8111156118dd576118dc6120dc565b5b6040519080825280601f01601f19166020018201604052801561190f5781602001600182028036833780820191505090505b509050600082602001820190505b600115611972578080600190039150507f3031323334353637383961626364656600000000000000000000000000000000600a86061a8153600a858161196657611965612d2b565b5b0494506000850361191d575b819350505050919050565b600073ffffffffffffffffffffffffffffffffffffffff168273ffffffffffffffffffffffffffffffffffffffff16036119ec576040517f08c379a00000000000000000000000000000000000000000000000000000000081526004016119e390612da6565b60405180910390fd5b6119f581611680565b15611a35576040517f08c379a0000000000000000000000000000000000000000000000000000000008152600401611a2c90612e12565b60405180910390fd5b611a436000838360016116c1565b611a4c81611680565b15611a8c576040517f08c379a0000000000000000000000000000000000000000000000000000000008152600401611a8390612e12565b60405180910390fd5b6001600360008473ffffffffffffffffffffffffffffffffffffffff1673ffffffffffffffffffffffffffffffffffffffff16815260200190815260200160002060008282540192505081905550816002600083815260200190815260200160002060006101000a81548173ffffffffffffffffffffffffffffffffffffffff021916908373ffffffffffffffffffffffffffffffffffffffff160217905550808273ffffffffffffffffffffffffffffffffffffffff16600073ffffffffffffffffffffffffffffffffffffffff167fddf252ad1be2c89b69c2b068fc378daa952ba7f163c4a11628f55a4df523b3ef60405160405180910390a4611b966000838360016116c7565b5050565b6000808273ffffffffffffffffffffffffffffffffffffffff163b119050919050565b600080600090507a184f03e93ff9f4daa797ed6e38ed64bf6a1f0100000000000000008310611c1b577a184f03e93ff9f4daa797ed6e38ed64bf6a1f0100000000000000008381611c1157611c10612d2b565b5b0492506040810190505b6d04ee2d6d415b85acef81000000008310611c58576d04ee2d6d415b85acef81000000008381611c4e57611c4d612d2b565b5b0492506020810190505b662386f26fc100008310611c8757662386f26fc100008381611c7d57611c7c612d2b565b5b0492506010810190505b6305f5e1008310611cb0576305f5e1008381611ca657611ca5612d2b565b5b0492506008810190505b6127108310611cd5576127108381611ccb57611cca612d2b565b5b0492506004810190505b60648310611cf85760648381611cee57611ced612d2b565b5b0492506002810190505b600a8310611d07576001810190505b80915050919050565b6000604051905090565b600080fd5b600080fd5b60007fffffffff0000000000000000000000000000000000000000000000000000000082169050919050565b611d5981611d24565b8114611d6457600080fd5b50565b600081359050611d7681611d50565b92915050565b600060208284031215611d9257611d91611d1a565b5b6000611da084828501611d67565b91505092915050565b60008115159050919050565b611dbe81611da9565b82525050565b6000602082019050611dd96000830184611db5565b92915050565b600081519050919050565b600082825260208201905092915050565b60005b83811015611e19578082015181840152602081019050611dfe565b60008484015250505050565b6000601f19601f8301169050919050565b6000611e4182611ddf565b611e4b8185611dea565b9350611e5b818560208601611dfb565b611e6481611e25565b840191505092915050565b60006020820190508181036000830152611e898184611e36565b905092915050565b6000819050919050565b611ea481611e91565b8114611eaf57600080fd5b50565b600081359050611ec181611e9b565b92915050565b600060208284031215611edd57611edc611d1a565b5b6000611eeb84828501611eb2565b91505092915050565b600073ffffffffffffffffffffffffffffffffffffffff82169050919050565b6000611f1f82611ef4565b9050919050565b611f2f81611f14565b82525050565b6000602082019050611f4a6000830184611f26565b92915050565b611f5981611f14565b8114611f6457600080fd5b50565b600081359050611f7681611f50565b92915050565b60008060408385031215611f9357611f92611d1a565b5b6000611fa185828601611f67565b9250506020611fb285828601611eb2565b9150509250929050565b600080600060608486031215611fd557611fd4611d1a565b5b6000611fe386828701611f67565b9350506020611ff486828701611f67565b925050604061200586828701611eb2565b9150509250925092565b61201881611e91565b82525050565b6000602082019050612033600083018461200f565b92915050565b60006020828403121561204f5761204e611d1a565b5b600061205d84828501611f67565b91505092915050565b61206f81611da9565b811461207a57600080fd5b50565b60008135905061208c81612066565b92915050565b600080604083850312156120a9576120a8611d1a565b5b60006120b785828601611f67565b92505060206120c88582860161207d565b9150509250929050565b600080fd5b600080fd5b7f4e487b7100000000000000000000000000000000000000000000000000000000600052604160045260246000fd5b61211482611e25565b810181811067ffffffffffffffff82111715612133576121326120dc565b5b80604052505050565b6000612146611d10565b9050612152828261210b565b919050565b600067ffffffffffffffff821115612172576121716120dc565b5b61217b82611e25565b9050602081019050919050565b82818337600083830152505050565b60006121aa6121a584612157565b61213c565b9050828152602081018484840111156121c6576121c56120d7565b5b6121d1848285612188565b509392505050565b600082601f8301126121ee576121ed6120d2565b5b81356121fe848260208601612197565b91505092915050565b6000806000806080858703121561222157612220611d1a565b5b600061222f87828801611f67565b945050602061224087828801611f67565b935050604061225187828801611eb2565b925050606085013567ffffffffffffffff81111561227257612271611d1f565b5b61227e878288016121d9565b91505092959194509250565b600080604083850312156122a1576122a0611d1a565b5b60006122af85828601611f67565b92505060206122c085828601611f67565b9150509250929050565b7f4e487b7100000000000000000000000000000000000000000000000000000000600052602260045260246000fd5b6000600282049050600182168061231157607f821691505b602082108103612324576123236122ca565b5b50919050565b7f4552433732313a20617070726f76616c20746f2063757272656e74206f776e6560008201527f7200000000000000000000000000000000000000000000000000000000000000602082015250565b6000612386602183611dea565b91506123918261232a565b604082019050919050565b600060208201905081810360008301526123b581612379565b9050919050565b7f4552433732313a20617070726f76652063616c6c6572206973206e6f7420746f60008201527f6b656e206f776e6572206f7220617070726f76656420666f7220616c6c000000602082015250565b6000612418603d83611dea565b9150612423826123bc565b604082019050919050565b600060208201905081810360008301526124478161240b565b9050919050565b7f4552433732313a2063616c6c6572206973206e6f7420746f6b656e206f776e6560008201527f72206f7220617070726f76656400000000000000000000000000000000000000602082015250565b60006124aa602d83611dea565b91506124b58261244e565b604082019050919050565b600060208201905081810360008301526124d98161249d565b9050919050565b600081905092915050565b50565b60006124fb6000836124e0565b9150612506826124eb565b600082019050919050565b600061251c826124ee565b9150819050919050565b7f4e487b7100000000000000000000000000000000000000000000000000000000600052601160045260246000fd5b600061256082611e91565b915061256b83611e91565b925082820190508082111561258357612582612526565b5b92915050565b7f4e487b7100000000000000000000000000000000000000000000000000000000600052603260045260246000fd5b7f4552433732313a20696e76616c696420746f6b656e2049440000000000000000600082015250565b60006125ee601883611dea565b91506125f9826125b8565b602082019050919050565b6000602082019050818103600083015261261d816125e1565b9050919050565b7f4552433732313a2061646472657373207a65726f206973206e6f74206120766160008201527f6c6964206f776e65720000000000000000000000000000000000000000000000602082015250565b6000612680602983611dea565b915061268b82612624565b604082019050919050565b600060208201905081810360008301526126af81612673565b9050919050565b600081905092915050565b60006126cc82611ddf565b6126d681856126b6565b93506126e6818560208601611dfb565b80840191505092915050565b60006126fe82856126c1565b915061270a82846126c1565b91508190509392505050565b7f4552433732313a207472616e736665722066726f6d20696e636f72726563742060008201527f6f776e6572000000000000000000000000000000000000000000000000000000602082015250565b6000612772602583611dea565b915061277d82612716565b604082019050919050565b600060208201905081810360008301526127a181612765565b9050919050565b7f4552433732313a207472616e7366657220746f20746865207a65726f2061646460008201527f7265737300000000000000000000000000000000000000000000000000000000602082015250565b6000612804602483611dea565b915061280f826127a8565b604082019050919050565b60006020820190508181036000830152612833816127f7565b9050919050565b7f45524337323155524953746f726167653a2055524920736574206f66206e6f6e60008201527f6578697374656e7420746f6b656e000000000000000000000000000000000000602082015250565b6000612896602e83611dea565b91506128a18261283a565b604082019050919050565b600060208201905081810360008301526128c581612889565b9050919050565b60008190508160005260206000209050919050565b60006020601f8301049050919050565b600082821b905092915050565b60006008830261292e7fffffffffffffffffffffffffffffffffffffffffffffffffffffffffffffffff826128f1565b61293886836128f1565b95508019841693508086168417925050509392505050565b6000819050919050565b600061297561297061296b84611e91565b612950565b611e91565b9050919050565b6000819050919050565b61298f8361295a565b6129a361299b8261297c565b8484546128fe565b825550505050565b600090565b6129b86129ab565b6129c3818484612986565b505050565b5b818110156129e7576129dc6000826129b0565b6001810190506129c9565b5050565b601f821115612a2c576129fd816128cc565b612a06846128e1565b81016020851015612a15578190505b612a29612a21856128e1565b8301826129c8565b50505b505050565b600082821c905092915050565b6000612a4f60001984600802612a31565b1980831691505092915050565b6000612a688383612a3e565b9150826002028217905092915050565b612a8182611ddf565b67ffffffffffffffff811115612a9a57612a996120dc565b5b612aa482546122f9565b612aaf8282856129eb565b600060209050601f831160018114612ae25760008415612ad0578287015190505b612ada8582612a5c565b865550612b42565b601f198416612af0866128cc565b60005b82811015612b1857848901518255600182019150602085019450602081019050612af3565b86831015612b355784890151612b31601f891682612a3e565b8355505b6001600288020188555050505b505050505050565b7f4552433732313a20617070726f766520746f2063616c6c657200000000000000600082015250565b6000612b80601983611dea565b9150612b8b82612b4a565b602082019050919050565b60006020820190508181036000830152612baf81612b73565b9050919050565b7f4552433732313a207472616e7366657220746f206e6f6e20455243373231526560008201527f63656976657220696d706c656d656e7465720000000000000000000000000000602082015250565b6000612c12603283611dea565b9150612c1d82612bb6565b604082019050919050565b60006020820190508181036000830152612c4181612c05565b9050919050565b600081519050919050565b600082825260208201905092915050565b6000612c6f82612c48565b612c798185612c53565b9350612c89818560208601611dfb565b612c9281611e25565b840191505092915050565b6000608082019050612cb26000830187611f26565b612cbf6020830186611f26565b612ccc604083018561200f565b8181036060830152612cde8184612c64565b905095945050505050565b600081519050612cf881611d50565b92915050565b600060208284031215612d1457612d13611d1a565b5b6000612d2284828501612ce9565b91505092915050565b7f4e487b7100000000000000000000000000000000000000000000000000000000600052601260045260246000fd5b7f4552433732313a206d696e7420746f20746865207a65726f2061646472657373600082015250565b6000612d90602083611dea565b9150612d9b82612d5a565b602082019050919050565b60006020820190508181036000830152612dbf81612d83565b9050919050565b7f4552433732313a20746f6b656e20616c7265616479206d696e74656400000000600082015250565b6000612dfc601c83611dea565b9150612e0782612dc6565b602082019050919050565b60006020820190508181036000830152612e2b81612def565b905091905056fea2646970667358221220b87dbaab50cc0963d62240f19e6c08dc58d225fea6faec17f1785cfec7a97a6f64736f6c63430008120033",
  "devdoc": {
    "events": {
      "Approval(address,address,uint256)": {
        "details": "Emitted when `owner` enables `approved` to manage the `tokenId` token."
      },
      "ApprovalForAll(address,address,bool)": {
        "details": "Emitted when `owner` enables or disables (`approved`) `operator` to manage all of its assets."
      },
      "Transfer(address,address,uint256)": {
        "details": "Emitted when `tokenId` token is transferred from `from` to `to`."
      }
    },
    "kind": "dev",
    "methods": {
      "approve(address,uint256)": {
        "details": "See {IERC721-approve}."
      },
      "balanceOf(address)": {
        "details": "See {IERC721-balanceOf}."
      },
      "getApproved(uint256)": {
        "details": "See {IERC721-getApproved}."
      },
      "isApprovedForAll(address,address)": {
        "details": "See {IERC721-isApprovedForAll}."
      },
      "name()": {
        "details": "See {IERC721Metadata-name}."
      },
      "ownerOf(uint256)": {
        "details": "See {IERC721-ownerOf}."
      },
      "safeTransferFrom(address,address,uint256)": {
        "details": "See {IERC721-safeTransferFrom}."
      },
      "safeTransferFrom(address,address,uint256,bytes)": {
        "details": "See {IERC721-safeTransferFrom}."
      },
      "setApprovalForAll(address,bool)": {
        "details": "See {IERC721-setApprovalForAll}."
      },
      "supportsInterface(bytes4)": {
        "details": "See {IERC165-supportsInterface}."
      },
      "symbol()": {
        "details": "See {IERC721Metadata-symbol}."
      },
      "tokenURI(uint256)": {
        "details": "See {IERC721Metadata-tokenURI}."
      },
      "transferFrom(address,address,uint256)": {
        "details": "See {IERC721-transferFrom}."
      }
    },
    "version": 1
  },
  "userdoc": {
    "kind": "user",
    "methods": {},
    "version": 1
  },
  "storageLayout": {
    "storage": [
      {
        "astId": 79,
        "contract": "contracts/CustomIPFSNFT.sol:CustomIPFSNFT",
        "label": "_name",
        "offset": 0,
        "slot": "0",
        "type": "t_string_storage"
      },
      {
        "astId": 81,
        "contract": "contracts/CustomIPFSNFT.sol:CustomIPFSNFT",
        "label": "_symbol",
        "offset": 0,
        "slot": "1",
        "type": "t_string_storage"
      },
      {
        "astId": 85,
        "contract": "contracts/CustomIPFSNFT.sol:CustomIPFSNFT",
        "label": "_owners",
        "offset": 0,
        "slot": "2",
        "type": "t_mapping(t_uint256,t_address)"
      },
      {
        "astId": 89,
        "contract": "contracts/CustomIPFSNFT.sol:CustomIPFSNFT",
        "label": "_balances",
        "offset": 0,
        "slot": "3",
        "type": "t_mapping(t_address,t_uint256)"
      },
      {
        "astId": 93,
        "contract": "contracts/CustomIPFSNFT.sol:CustomIPFSNFT",
        "label": "_tokenApprovals",
        "offset": 0,
        "slot": "4",
        "type": "t_mapping(t_uint256,t_address)"
      },
      {
        "astId": 99,
        "contract": "contracts/CustomIPFSNFT.sol:CustomIPFSNFT",
        "label": "_operatorApprovals",
        "offset": 0,
        "slot": "5",
        "type": "t_mapping(t_address,t_mapping(t_address,t_bool))"
      },
      {
        "astId": 1127,
        "contract": "contracts/CustomIPFSNFT.sol:CustomIPFSNFT",
        "label": "_tokenURIs",
        "offset": 0,
        "slot": "6",
        "type": "t_mapping(t_uint256,t_string_storage)"
      },
      {
        "astId": 2787,
        "contract": "contracts/CustomIPFSNFT.sol:CustomIPFSNFT",
        "label": "s_tokenCounter",
        "offset": 0,
        "slot": "7",
        "type": "t_uint256"
      },
      {
        "astId": 2790,
        "contract": "contracts/CustomIPFSNFT.sol:CustomIPFSNFT",
        "label": "s_TokenUris",
        "offset": 0,
        "slot": "8",
        "type": "t_array(t_string_storage)dyn_storage"
      },
      {
        "astId": 2792,
        "contract": "contracts/CustomIPFSNFT.sol:CustomIPFSNFT",
        "label": "s_initialized",
        "offset": 0,
        "slot": "9",
        "type": "t_bool"
      },
      {
        "astId": 2794,
        "contract": "contracts/CustomIPFSNFT.sol:CustomIPFSNFT",
        "label": "s_tokenName",
        "offset": 0,
        "slot": "10",
        "type": "t_string_storage"
      },
      {
        "astId": 2796,
        "contract": "contracts/CustomIPFSNFT.sol:CustomIPFSNFT",
        "label": "s_tokenSymbol",
        "offset": 0,
        "slot": "11",
        "type": "t_string_storage"
      },
      {
        "astId": 2798,
        "contract": "contracts/CustomIPFSNFT.sol:CustomIPFSNFT",
        "label": "owner",
        "offset": 0,
        "slot": "12",
        "type": "t_address"
      }
    ],
    "types": {
      "t_address": {
        "encoding": "inplace",
        "label": "address",
        "numberOfBytes": "20"
      },
      "t_array(t_string_storage)dyn_storage": {
        "base": "t_string_storage",
        "encoding": "dynamic_array",
        "label": "string[]",
        "numberOfBytes": "32"
      },
      "t_bool": {
        "encoding": "inplace",
        "label": "bool",
        "numberOfBytes": "1"
      },
      "t_mapping(t_address,t_bool)": {
        "encoding": "mapping",
        "key": "t_address",
        "label": "mapping(address => bool)",
        "numberOfBytes": "32",
        "value": "t_bool"
      },
      "t_mapping(t_address,t_mapping(t_address,t_bool))": {
        "encoding": "mapping",
        "key": "t_address",
        "label": "mapping(address => mapping(address => bool))",
        "numberOfBytes": "32",
        "value": "t_mapping(t_address,t_bool)"
      },
      "t_mapping(t_address,t_uint256)": {
        "encoding": "mapping",
        "key": "t_address",
        "label": "mapping(address => uint256)",
        "numberOfBytes": "32",
        "value": "t_uint256"
      },
      "t_mapping(t_uint256,t_address)": {
        "encoding": "mapping",
        "key": "t_uint256",
        "label": "mapping(uint256 => address)",
        "numberOfBytes": "32",
        "value": "t_address"
      },
      "t_mapping(t_uint256,t_string_storage)": {
        "encoding": "mapping",
        "key": "t_uint256",
        "label": "mapping(uint256 => string)",
        "numberOfBytes": "32",
        "value": "t_string_storage"
      },
      "t_string_storage": {
        "encoding": "bytes",
        "label": "string",
        "numberOfBytes": "32"
      },
      "t_uint256": {
        "encoding": "inplace",
        "label": "uint256",
        "numberOfBytes": "32"
      }
    }
  }
}