{
  "address": "0x5FbDB2315678afecb367f032d93F642f64180aa3",
  "abi": [
    {
      "inputs": [
        {
          "internalType": "address",
          "name": "nftAddress",
          "type": "address"
        },
        {
          "internalType": "uint256",
          "name": "tokenId",
          "type": "uint256"
        }
      ],
      "name": "AlreadyListed",
      "type": "error"
    },
    {
      "inputs": [],
      "name": "NoProceeds",
      "type": "error"
    },
    {
      "inputs": [],
      "name": "NotApprovedForMarketplace",
      "type": "error"
    },
    {
      "inputs": [
        {
          "internalType": "address",
          "name": "nftAddress",
          "type": "address"
        },
        {
          "internalType": "uint256",
          "name": "tokenId",
          "type": "uint256"
        }
      ],
      "name": "NotListed",
      "type": "error"
    },
    {
      "inputs": [],
      "name": "NotOwner",
      "type": "error"
    },
    {
      "inputs": [
        {
          "internalType": "address",
          "name": "nftAddress",
          "type": "address"
        },
        {
          "internalType": "uint256",
          "name": "tokenId",
          "type": "uint256"
        },
        {
          "internalType": "uint256",
          "name": "time",
          "type": "uint256"
        }
      ],
      "name": "NotWithinTimeframe",
      "type": "error"
    },
    {
      "inputs": [],
      "name": "PriceMustBeAboveZero",
      "type": "error"
    },
    {
      "inputs": [
        {
          "internalType": "address",
          "name": "nftAddress",
          "type": "address"
        },
        {
          "internalType": "uint256",
          "name": "tokenId",
          "type": "uint256"
        },
        {
          "internalType": "uint256",
          "name": "price",
          "type": "uint256"
        }
      ],
      "name": "PriceNotMet",
      "type": "error"
    },
    {
      "anonymous": false,
      "inputs": [
        {
          "indexed": true,
          "internalType": "address",
          "name": "buyer",
          "type": "address"
        },
        {
          "indexed": true,
          "internalType": "address",
          "name": "nftAddress",
          "type": "address"
        },
        {
          "indexed": true,
          "internalType": "uint256",
          "name": "tokenId",
          "type": "uint256"
        },
        {
          "indexed": false,
          "internalType": "uint256",
          "name": "price",
          "type": "uint256"
        }
      ],
      "name": "ItemBought",
      "type": "event"
    },
    {
      "anonymous": false,
      "inputs": [
        {
          "indexed": true,
          "internalType": "address",
          "name": "seller",
          "type": "address"
        },
        {
          "indexed": true,
          "internalType": "address",
          "name": "nftAddress",
          "type": "address"
        },
        {
          "indexed": true,
          "internalType": "uint256",
          "name": "tokenId",
          "type": "uint256"
        }
      ],
      "name": "ItemCanceled",
      "type": "event"
    },
    {
      "anonymous": false,
      "inputs": [
        {
          "indexed": true,
          "internalType": "address",
          "name": "seller",
          "type": "address"
        },
        {
          "indexed": true,
          "internalType": "address",
          "name": "nftAddress",
          "type": "address"
        },
        {
          "indexed": true,
          "internalType": "uint256",
          "name": "tokenId",
          "type": "uint256"
        },
        {
          "indexed": false,
          "internalType": "uint256",
          "name": "price",
          "type": "uint256"
        },
        {
          "indexed": false,
          "internalType": "uint256",
          "name": "time",
          "type": "uint256"
        }
      ],
      "name": "ItemListed",
      "type": "event"
    },
    {
      "inputs": [],
      "name": "activationTime",
      "outputs": [
        {
          "internalType": "uint256",
          "name": "",
          "type": "uint256"
        }
      ],
      "stateMutability": "view",
      "type": "function"
    },
    {
      "inputs": [
        {
          "internalType": "address",
          "name": "nftAddress",
          "type": "address"
        },
        {
          "internalType": "uint256",
          "name": "tokenId",
          "type": "uint256"
        }
      ],
      "name": "buyItem",
      "outputs": [],
      "stateMutability": "payable",
      "type": "function"
    },
    {
      "inputs": [
        {
          "internalType": "address",
          "name": "nftAddress",
          "type": "address"
        },
        {
          "internalType": "uint256",
          "name": "tokenId",
          "type": "uint256"
        }
      ],
      "name": "cancelListing",
      "outputs": [],
      "stateMutability": "nonpayable",
      "type": "function"
    },
    {
      "inputs": [],
      "name": "getAmountOfActiveListings",
      "outputs": [
        {
          "internalType": "uint256",
          "name": "",
          "type": "uint256"
        }
      ],
      "stateMutability": "view",
      "type": "function"
    },
    {
      "inputs": [
        {
          "internalType": "address",
          "name": "nftAddress",
          "type": "address"
        },
        {
          "internalType": "uint256",
          "name": "tokenId",
          "type": "uint256"
        }
      ],
      "name": "getListing",
      "outputs": [
        {
          "components": [
            {
              "internalType": "uint256",
              "name": "price",
              "type": "uint256"
            },
            {
              "internalType": "address",
              "name": "seller",
              "type": "address"
            },
            {
              "internalType": "uint256",
              "name": "time",
              "type": "uint256"
            }
          ],
          "internalType": "struct Marketplace.Listing",
          "name": "",
          "type": "tuple"
        }
      ],
      "stateMutability": "view",
      "type": "function"
    },
    {
      "inputs": [
        {
          "internalType": "address",
          "name": "nftAddress",
          "type": "address"
        },
        {
          "internalType": "uint256",
          "name": "tokenId",
          "type": "uint256"
        }
      ],
      "name": "getListingTime",
      "outputs": [
        {
          "internalType": "uint256",
          "name": "",
          "type": "uint256"
        }
      ],
      "stateMutability": "view",
      "type": "function"
    },
    {
      "inputs": [
        {
          "internalType": "address",
          "name": "seller",
          "type": "address"
        }
      ],
      "name": "getProceeds",
      "outputs": [
        {
          "internalType": "uint256",
          "name": "",
          "type": "uint256"
        }
      ],
      "stateMutability": "view",
      "type": "function"
    },
    {
      "inputs": [
        {
          "internalType": "address",
          "name": "nftAddress",
          "type": "address"
        },
        {
          "internalType": "uint256",
          "name": "tokenId",
          "type": "uint256"
        },
        {
          "internalType": "uint256",
          "name": "price",
          "type": "uint256"
        },
        {
          "internalType": "uint256",
          "name": "startTime",
          "type": "uint256"
        }
      ],
      "name": "listItem",
      "outputs": [],
      "stateMutability": "nonpayable",
      "type": "function"
    },
    {
      "inputs": [
        {
          "internalType": "address",
          "name": "nftAddress",
          "type": "address"
        },
        {
          "internalType": "uint256",
          "name": "tokenId",
          "type": "uint256"
        },
        {
          "internalType": "uint256",
          "name": "newPrice",
          "type": "uint256"
        },
        {
          "internalType": "uint256",
          "name": "newTime",
          "type": "uint256"
        }
      ],
      "name": "updateListing",
      "outputs": [],
      "stateMutability": "nonpayable",
      "type": "function"
    },
    {
      "inputs": [],
      "name": "withdrawProceeds",
      "outputs": [],
      "stateMutability": "nonpayable",
      "type": "function"
    }
  ],
  "transactionHash": "0x441dac813e570a645827a3ec5c639a806ff58a040842622bf71d631d62f0dbc9",
  "args": [],
  "numDeployments": 1,
  "solcInputHash": "86c7eec4e18140a4e07ccc6d553ad992",
  "bytecode": "0x608060405234801561001057600080fd5b506001600081905550611ad7806100286000396000f3fe6080604052600436106100915760003560e01c8063a65b2c4d11610059578063a65b2c4d1461016e578063b2ddee06146101ab578063bcb143ef146101d4578063d9964757146101fd578063da4493f61461022657610091565b806330cfeda91461009657806383376626146100d357806388700d1c146100fe5780639038e6931461013b5780639f37092a14610152575b600080fd5b3480156100a257600080fd5b506100bd60048036038101906100b891906115de565b610251565b6040516100ca9190611624565b60405180910390f35b3480156100df57600080fd5b506100e861029a565b6040516100f59190611624565b60405180910390f35b34801561010a57600080fd5b506101256004803603810190610120919061166b565b6102a4565b604051610132919061170b565b60405180910390f35b34801561014757600080fd5b50610150610379565b005b61016c6004803603810190610167919061166b565b6104ec565b005b34801561017a57600080fd5b506101956004803603810190610190919061166b565b61095e565b6040516101a29190611624565b60405180910390f35b3480156101b757600080fd5b506101d260048036038101906101cd919061166b565b6109bc565b005b3480156101e057600080fd5b506101fb60048036038101906101f69190611726565b610cc6565b005b34801561020957600080fd5b50610224600480360381019061021f9190611726565b611169565b005b34801561023257600080fd5b5061023b6114e5565b6040516102489190611624565b60405180910390f35b6000600260008373ffffffffffffffffffffffffffffffffffffffff1673ffffffffffffffffffffffffffffffffffffffff168152602001908152602001600020549050919050565b6000600454905090565b6102ac611544565b600160008473ffffffffffffffffffffffffffffffffffffffff1673ffffffffffffffffffffffffffffffffffffffff1681526020019081526020016000206000838152602001908152602001600020604051806060016040529081600082015481526020016001820160009054906101000a900473ffffffffffffffffffffffffffffffffffffffff1673ffffffffffffffffffffffffffffffffffffffff1673ffffffffffffffffffffffffffffffffffffffff168152602001600282015481525050905092915050565b6000600260003373ffffffffffffffffffffffffffffffffffffffff1673ffffffffffffffffffffffffffffffffffffffff168152602001908152602001600020549050600081116103f7576040517fc4d8fa8700000000000000000000000000000000000000000000000000000000815260040160405180910390fd5b6000600260003373ffffffffffffffffffffffffffffffffffffffff1673ffffffffffffffffffffffffffffffffffffffff1681526020019081526020016000208190555060003373ffffffffffffffffffffffffffffffffffffffff1682604051610462906117be565b60006040518083038185875af1925050503d806000811461049f576040519150601f19603f3d011682016040523d82523d6000602084013e6104a4565b606091505b50509050806104e8576040517f08c379a00000000000000000000000000000000000000000000000000000000081526004016104df90611830565b60405180910390fd5b5050565b81816000600160008473ffffffffffffffffffffffffffffffffffffffff1673ffffffffffffffffffffffffffffffffffffffff1681526020019081526020016000206000838152602001908152602001600020604051806060016040529081600082015481526020016001820160009054906101000a900473ffffffffffffffffffffffffffffffffffffffff1673ffffffffffffffffffffffffffffffffffffffff1673ffffffffffffffffffffffffffffffffffffffff168152602001600282015481525050905060008160000151116106025782826040517f6831488c0000000000000000000000000000000000000000000000000000000081526004016105f992919061185f565b60405180910390fd5b61060a6114eb565b6000600160008773ffffffffffffffffffffffffffffffffffffffff1673ffffffffffffffffffffffffffffffffffffffff1681526020019081526020016000206000868152602001908152602001600020604051806060016040529081600082015481526020016001820160009054906101000a900473ffffffffffffffffffffffffffffffffffffffff1673ffffffffffffffffffffffffffffffffffffffff1673ffffffffffffffffffffffffffffffffffffffff1681526020016002820154815250509050806040015142101561072457858582604001516040517ffb2f575000000000000000000000000000000000000000000000000000000000815260040161071b93929190611888565b60405180910390fd5b806000015134101561077557858582600001516040517f7c93456500000000000000000000000000000000000000000000000000000000815260040161076c93929190611888565b60405180910390fd5b3460026000836020015173ffffffffffffffffffffffffffffffffffffffff1673ffffffffffffffffffffffffffffffffffffffff16815260200190815260200160002060008282546107c891906118ee565b92505081905550600160008773ffffffffffffffffffffffffffffffffffffffff1673ffffffffffffffffffffffffffffffffffffffff16815260200190815260200160002060008681526020019081526020016000206000808201600090556001820160006101000a81549073ffffffffffffffffffffffffffffffffffffffff0219169055600282016000905550506004600081548092919061086c90611922565b91905055508573ffffffffffffffffffffffffffffffffffffffff166342842e0e826020015133886040518463ffffffff1660e01b81526004016108b29392919061194b565b600060405180830381600087803b1580156108cc57600080fd5b505af11580156108e0573d6000803e3d6000fd5b50505050848673ffffffffffffffffffffffffffffffffffffffff163373ffffffffffffffffffffffffffffffffffffffff167f263223b1dd81e51054a4e6f791d45a4a1ddb4aadcd93a2dfd892615c3fdac18784600001516040516109469190611624565b60405180910390a45061095761153a565b5050505050565b6000600160008473ffffffffffffffffffffffffffffffffffffffff1673ffffffffffffffffffffffffffffffffffffffff168152602001908152602001600020600083815260200190815260200160002060020154905092915050565b818133600083905060008173ffffffffffffffffffffffffffffffffffffffff16636352211e856040518263ffffffff1660e01b81526004016109ff9190611624565b602060405180830381865afa158015610a1c573d6000803e3d6000fd5b505050506040513d601f19601f82011682018060405250810190610a409190611997565b90508073ffffffffffffffffffffffffffffffffffffffff168373ffffffffffffffffffffffffffffffffffffffff1614610aa7576040517f30cd747100000000000000000000000000000000000000000000000000000000815260040160405180910390fd5b86866000600160008473ffffffffffffffffffffffffffffffffffffffff1673ffffffffffffffffffffffffffffffffffffffff1681526020019081526020016000206000838152602001908152602001600020604051806060016040529081600082015481526020016001820160009054906101000a900473ffffffffffffffffffffffffffffffffffffffff1673ffffffffffffffffffffffffffffffffffffffff1673ffffffffffffffffffffffffffffffffffffffff16815260200160028201548152505090506000816000015111610bbd5782826040517f6831488c000000000000000000000000000000000000000000000000000000008152600401610bb492919061185f565b60405180910390fd5b60046000815480929190610bd090611922565b9190505550600160008b73ffffffffffffffffffffffffffffffffffffffff1673ffffffffffffffffffffffffffffffffffffffff16815260200190815260200160002060008a81526020019081526020016000206000808201600090556001820160006101000a81549073ffffffffffffffffffffffffffffffffffffffff021916905560028201600090555050888a73ffffffffffffffffffffffffffffffffffffffff163373ffffffffffffffffffffffffffffffffffffffff167f9ba1a3cb55ce8d63d072a886f94d2a744f50cddf82128e897d0661f5ec62315860405160405180910390a450505050505050505050565b83836000600160008473ffffffffffffffffffffffffffffffffffffffff1673ffffffffffffffffffffffffffffffffffffffff1681526020019081526020016000206000838152602001908152602001600020604051806060016040529081600082015481526020016001820160009054906101000a900473ffffffffffffffffffffffffffffffffffffffff1673ffffffffffffffffffffffffffffffffffffffff1673ffffffffffffffffffffffffffffffffffffffff1681526020016002820154815250509050600081600001511115610ddd5782826040517f4a5568d5000000000000000000000000000000000000000000000000000000008152600401610dd492919061185f565b60405180910390fd5b868633600083905060008173ffffffffffffffffffffffffffffffffffffffff16636352211e856040518263ffffffff1660e01b8152600401610e209190611624565b602060405180830381865afa158015610e3d573d6000803e3d6000fd5b505050506040513d601f19601f82011682018060405250810190610e619190611997565b90508073ffffffffffffffffffffffffffffffffffffffff168373ffffffffffffffffffffffffffffffffffffffff1614610ec8576040517f30cd747100000000000000000000000000000000000000000000000000000000815260040160405180910390fd5b60008a11610f02576040517fe1abbfc500000000000000000000000000000000000000000000000000000000815260040160405180910390fd5b60008c90503073ffffffffffffffffffffffffffffffffffffffff168173ffffffffffffffffffffffffffffffffffffffff1663081812fc8e6040518263ffffffff1660e01b8152600401610f579190611624565b602060405180830381865afa158015610f74573d6000803e3d6000fd5b505050506040513d601f19601f82011682018060405250810190610f989190611997565b73ffffffffffffffffffffffffffffffffffffffff1614610fe5576040517f4be3a2c500000000000000000000000000000000000000000000000000000000815260040160405180910390fd5b8942610ff191906118ee565b6003819055506004600081548092919061100a906119c4565b919050555060405180606001604052808c81526020013373ffffffffffffffffffffffffffffffffffffffff168152602001600354815250600160008f73ffffffffffffffffffffffffffffffffffffffff1673ffffffffffffffffffffffffffffffffffffffff16815260200190815260200160002060008e81526020019081526020016000206000820151816000015560208201518160010160006101000a81548173ffffffffffffffffffffffffffffffffffffffff021916908373ffffffffffffffffffffffffffffffffffffffff160217905550604082015181600201559050508b8d73ffffffffffffffffffffffffffffffffffffffff163373ffffffffffffffffffffffffffffffffffffffff167f91623fbd639d8d503fe2e77aab334b032313685f1b28c84d838c4b647b1f5d9d8e600354604051611152929190611a0c565b60405180910390a450505050505050505050505050565b83836000600160008473ffffffffffffffffffffffffffffffffffffffff1673ffffffffffffffffffffffffffffffffffffffff1681526020019081526020016000206000838152602001908152602001600020604051806060016040529081600082015481526020016001820160009054906101000a900473ffffffffffffffffffffffffffffffffffffffff1673ffffffffffffffffffffffffffffffffffffffff1673ffffffffffffffffffffffffffffffffffffffff1681526020016002820154815250509050600081600001511161127f5782826040517f6831488c00000000000000000000000000000000000000000000000000000000815260040161127692919061185f565b60405180910390fd5b6112876114eb565b868633600083905060008173ffffffffffffffffffffffffffffffffffffffff16636352211e856040518263ffffffff1660e01b81526004016112ca9190611624565b602060405180830381865afa1580156112e7573d6000803e3d6000fd5b505050506040513d601f19601f8201168201806040525081019061130b9190611997565b90508073ffffffffffffffffffffffffffffffffffffffff168373ffffffffffffffffffffffffffffffffffffffff1614611372576040517f30cd747100000000000000000000000000000000000000000000000000000000815260040160405180910390fd5b60008a116113ac576040517fe1abbfc500000000000000000000000000000000000000000000000000000000815260040160405180910390fd5b89600160008e73ffffffffffffffffffffffffffffffffffffffff1673ffffffffffffffffffffffffffffffffffffffff16815260200190815260200160002060008d815260200190815260200160002060000181905550884261141091906118ee565b600160008e73ffffffffffffffffffffffffffffffffffffffff1673ffffffffffffffffffffffffffffffffffffffff16815260200190815260200160002060008d8152602001908152602001600020600201819055508a8c73ffffffffffffffffffffffffffffffffffffffff163373ffffffffffffffffffffffffffffffffffffffff167f91623fbd639d8d503fe2e77aab334b032313685f1b28c84d838c4b647b1f5d9d8d8d6040516114c7929190611a0c565b60405180910390a450505050506114dc61153a565b50505050505050565b60035481565b600260005403611530576040517f08c379a000000000000000000000000000000000000000000000000000000000815260040161152790611a81565b60405180910390fd5b6002600081905550565b6001600081905550565b604051806060016040528060008152602001600073ffffffffffffffffffffffffffffffffffffffff168152602001600081525090565b600080fd5b600073ffffffffffffffffffffffffffffffffffffffff82169050919050565b60006115ab82611580565b9050919050565b6115bb816115a0565b81146115c657600080fd5b50565b6000813590506115d8816115b2565b92915050565b6000602082840312156115f4576115f361157b565b5b6000611602848285016115c9565b91505092915050565b6000819050919050565b61161e8161160b565b82525050565b60006020820190506116396000830184611615565b92915050565b6116488161160b565b811461165357600080fd5b50565b6000813590506116658161163f565b92915050565b600080604083850312156116825761168161157b565b5b6000611690858286016115c9565b92505060206116a185828601611656565b9150509250929050565b6116b48161160b565b82525050565b6116c3816115a0565b82525050565b6060820160008201516116df60008501826116ab565b5060208201516116f260208501826116ba565b50604082015161170560408501826116ab565b50505050565b600060608201905061172060008301846116c9565b92915050565b600080600080608085870312156117405761173f61157b565b5b600061174e878288016115c9565b945050602061175f87828801611656565b935050604061177087828801611656565b925050606061178187828801611656565b91505092959194509250565b600081905092915050565b50565b60006117a860008361178d565b91506117b382611798565b600082019050919050565b60006117c98261179b565b9150819050919050565b600082825260208201905092915050565b7f5472616e73666572206661696c65640000000000000000000000000000000000600082015250565b600061181a600f836117d3565b9150611825826117e4565b602082019050919050565b600060208201905081810360008301526118498161180d565b9050919050565b611859816115a0565b82525050565b60006040820190506118746000830185611850565b6118816020830184611615565b9392505050565b600060608201905061189d6000830186611850565b6118aa6020830185611615565b6118b76040830184611615565b949350505050565b7f4e487b7100000000000000000000000000000000000000000000000000000000600052601160045260246000fd5b60006118f98261160b565b91506119048361160b565b925082820190508082111561191c5761191b6118bf565b5b92915050565b600061192d8261160b565b9150600082036119405761193f6118bf565b5b600182039050919050565b60006060820190506119606000830186611850565b61196d6020830185611850565b61197a6040830184611615565b949350505050565b600081519050611991816115b2565b92915050565b6000602082840312156119ad576119ac61157b565b5b60006119bb84828501611982565b91505092915050565b60006119cf8261160b565b91507fffffffffffffffffffffffffffffffffffffffffffffffffffffffffffffffff8203611a0157611a006118bf565b5b600182019050919050565b6000604082019050611a216000830185611615565b611a2e6020830184611615565b9392505050565b7f5265656e7472616e637947756172643a207265656e7472616e742063616c6c00600082015250565b6000611a6b601f836117d3565b9150611a7682611a35565b602082019050919050565b60006020820190508181036000830152611a9a81611a5e565b905091905056fea2646970667358221220b30dbe2cf664118b6dd47170d95ba95fc679afaa85df6ed02c5964bc61c5714964736f6c63430008120033",
  "devdoc": {
    "kind": "dev",
    "methods": {
      "buyItem(address,uint256)": {
        "params": {
          "nftAddress": "Address of NFT contract",
          "tokenId": "Token ID of NFT"
        }
      },
      "cancelListing(address,uint256)": {
        "params": {
          "nftAddress": "Address of NFT contract",
          "tokenId": "Token ID of NFT"
        }
      },
      "updateListing(address,uint256,uint256,uint256)": {
        "params": {
          "newPrice": "Price in Wei of the item",
          "nftAddress": "Address of NFT contract",
          "tokenId": "Token ID of NFT"
        }
      }
    },
    "version": 1
  },
  "userdoc": {
    "kind": "user",
    "methods": {
      "buyItem(address,uint256)": {
        "notice": "Method for buying listingThe owner of an NFT could unapprove the marketplace, which would cause this function to fail."
      },
      "cancelListing(address,uint256)": {
        "notice": "Method for cancelling listing"
      },
      "updateListing(address,uint256,uint256,uint256)": {
        "notice": "Method for updating listing"
      },
      "withdrawProceeds()": {
        "notice": "Method for withdrawing proceeds from sales"
      }
    },
    "version": 1
  },
  "storageLayout": {
    "storage": [
      {
        "astId": 10,
        "contract": "contracts/Marketplace.sol:Marketplace",
        "label": "_status",
        "offset": 0,
        "slot": "0",
        "type": "t_uint256"
      },
      {
        "astId": 273,
        "contract": "contracts/Marketplace.sol:Marketplace",
        "label": "s_listings",
        "offset": 0,
        "slot": "1",
        "type": "t_mapping(t_address,t_mapping(t_uint256,t_struct(Listing)236_storage))"
      },
      {
        "astId": 277,
        "contract": "contracts/Marketplace.sol:Marketplace",
        "label": "s_proceeds",
        "offset": 0,
        "slot": "2",
        "type": "t_mapping(t_address,t_uint256)"
      },
      {
        "astId": 367,
        "contract": "contracts/Marketplace.sol:Marketplace",
        "label": "activationTime",
        "offset": 0,
        "slot": "3",
        "type": "t_uint256"
      },
      {
        "astId": 369,
        "contract": "contracts/Marketplace.sol:Marketplace",
        "label": "activeOffersCount",
        "offset": 0,
        "slot": "4",
        "type": "t_uint256"
      }
    ],
    "types": {
      "t_address": {
        "encoding": "inplace",
        "label": "address",
        "numberOfBytes": "20"
      },
      "t_mapping(t_address,t_mapping(t_uint256,t_struct(Listing)236_storage))": {
        "encoding": "mapping",
        "key": "t_address",
        "label": "mapping(address => mapping(uint256 => struct Marketplace.Listing))",
        "numberOfBytes": "32",
        "value": "t_mapping(t_uint256,t_struct(Listing)236_storage)"
      },
      "t_mapping(t_address,t_uint256)": {
        "encoding": "mapping",
        "key": "t_address",
        "label": "mapping(address => uint256)",
        "numberOfBytes": "32",
        "value": "t_uint256"
      },
      "t_mapping(t_uint256,t_struct(Listing)236_storage)": {
        "encoding": "mapping",
        "key": "t_uint256",
        "label": "mapping(uint256 => struct Marketplace.Listing)",
        "numberOfBytes": "32",
        "value": "t_struct(Listing)236_storage"
      },
      "t_struct(Listing)236_storage": {
        "encoding": "inplace",
        "label": "struct Marketplace.Listing",
        "members": [
          {
            "astId": 231,
            "contract": "contracts/Marketplace.sol:Marketplace",
            "label": "price",
            "offset": 0,
            "slot": "0",
            "type": "t_uint256"
          },
          {
            "astId": 233,
            "contract": "contracts/Marketplace.sol:Marketplace",
            "label": "seller",
            "offset": 0,
            "slot": "1",
            "type": "t_address"
          },
          {
            "astId": 235,
            "contract": "contracts/Marketplace.sol:Marketplace",
            "label": "time",
            "offset": 0,
            "slot": "2",
            "type": "t_uint256"
          }
        ],
        "numberOfBytes": "96"
      },
      "t_uint256": {
        "encoding": "inplace",
        "label": "uint256",
        "numberOfBytes": "32"
      }
    }
  }
}