{
  "address": "0xe7f1725E7734CE288F8367e1Bb143E90bb3F0512",
  "abi": [
    {
      "inputs": [],
      "stateMutability": "nonpayable",
      "type": "constructor"
    },
    {
      "anonymous": false,
      "inputs": [
        {
          "indexed": true,
          "internalType": "address",
          "name": "_storeAddr",
          "type": "address"
        },
        {
          "indexed": false,
          "internalType": "string",
          "name": "_storeName",
          "type": "string"
        },
        {
          "indexed": false,
          "internalType": "uint256",
          "name": "timestamp",
          "type": "uint256"
        }
      ],
      "name": "DateMarkedAsShop",
      "type": "event"
    },
    {
      "anonymous": false,
      "inputs": [
        {
          "indexed": true,
          "internalType": "address",
          "name": "_from",
          "type": "address"
        },
        {
          "indexed": true,
          "internalType": "address",
          "name": "_to",
          "type": "address"
        },
        {
          "indexed": false,
          "internalType": "uint256",
          "name": "timestamp",
          "type": "uint256"
        }
      ],
      "name": "PrivlegesMoved",
      "type": "event"
    },
    {
      "inputs": [],
      "name": "admin",
      "outputs": [
        {
          "internalType": "address",
          "name": "",
          "type": "address"
        }
      ],
      "stateMutability": "view",
      "type": "function"
    },
    {
      "inputs": [
        {
          "internalType": "uint256",
          "name": "index",
          "type": "uint256"
        }
      ],
      "name": "getStoreByIndex",
      "outputs": [
        {
          "components": [
            {
              "internalType": "string",
              "name": "sname",
              "type": "string"
            },
            {
              "internalType": "address",
              "name": "saddress",
              "type": "address"
            }
          ],
          "internalType": "struct StoreAccessControl.Store",
          "name": "specifiedStore",
          "type": "tuple"
        }
      ],
      "stateMutability": "view",
      "type": "function"
    },
    {
      "inputs": [
        {
          "internalType": "address",
          "name": "_checkAddr",
          "type": "address"
        }
      ],
      "name": "isAddressPrivileged",
      "outputs": [
        {
          "internalType": "bool",
          "name": "",
          "type": "bool"
        }
      ],
      "stateMutability": "view",
      "type": "function"
    },
    {
      "inputs": [
        {
          "internalType": "address",
          "name": "",
          "type": "address"
        }
      ],
      "name": "isVerifiedStore",
      "outputs": [
        {
          "internalType": "bool",
          "name": "",
          "type": "bool"
        }
      ],
      "stateMutability": "view",
      "type": "function"
    },
    {
      "inputs": [
        {
          "internalType": "address",
          "name": "_storeAddr",
          "type": "address"
        },
        {
          "internalType": "string",
          "name": "_storeName",
          "type": "string"
        }
      ],
      "name": "markUserAsStore",
      "outputs": [],
      "stateMutability": "nonpayable",
      "type": "function"
    },
    {
      "inputs": [
        {
          "internalType": "address",
          "name": "_newAdminAddr",
          "type": "address"
        }
      ],
      "name": "moveAdminPrivileges",
      "outputs": [],
      "stateMutability": "nonpayable",
      "type": "function"
    },
    {
      "inputs": [],
      "name": "numberOfPartneredStores",
      "outputs": [
        {
          "internalType": "uint8",
          "name": "",
          "type": "uint8"
        }
      ],
      "stateMutability": "view",
      "type": "function"
    },
    {
      "inputs": [
        {
          "internalType": "address",
          "name": "_addrToRemove",
          "type": "address"
        }
      ],
      "name": "removeUserPrivileges",
      "outputs": [],
      "stateMutability": "nonpayable",
      "type": "function"
    },
    {
      "inputs": [
        {
          "internalType": "uint256",
          "name": "",
          "type": "uint256"
        }
      ],
      "name": "stores",
      "outputs": [
        {
          "internalType": "string",
          "name": "sname",
          "type": "string"
        },
        {
          "internalType": "address",
          "name": "saddress",
          "type": "address"
        }
      ],
      "stateMutability": "view",
      "type": "function"
    }
  ],
  "transactionHash": "0xe3638bf5b0c867401c6294f2411cfd05043ce52c301dbb8a5f84ac24d867fc57",
  "args": [],
  "numDeployments": 1,
  "solcInputHash": "4dee68750e02944834daed54f0dc6c4b",
  "bytecode": "0x608060405234801561001057600080fd5b50336000806101000a81548173ffffffffffffffffffffffffffffffffffffffff021916908373ffffffffffffffffffffffffffffffffffffffff16021790555061191d806100606000396000f3fe608060405234801561001057600080fd5b50600436106100935760003560e01c80638520e9eb116100665780638520e9eb1461011e57806392bc9bcd1461014e578063bf2b15221461016a578063e8a59cd81461019a578063f851a440146101cb57610093565b806323babed514610098578063334a145c146100b6578063389b757d146100d2578063827feb5614610102575b600080fd5b6100a06101e9565b6040516100ad9190610d42565b60405180910390f35b6100d060048036038101906100cb9190610dcf565b610200565b005b6100ec60048036038101906100e79190610dcf565b6103c4565b6040516100f99190610e17565b60405180910390f35b61011c60048036038101906101179190610f78565b61041a565b005b61013860048036038101906101339190610dcf565b610723565b6040516101459190610e17565b60405180910390f35b61016860048036038101906101639190610dcf565b610743565b005b610184600480360381019061017f919061100a565b610a75565b6040516101919190611102565b60405180910390f35b6101b460048036038101906101af919061100a565b610b99565b6040516101c292919061117d565b60405180910390f35b6101d3610c75565b6040516101e091906111ad565b60405180910390f35b6000600460009054906101000a900460ff16905090565b60008054906101000a900473ffffffffffffffffffffffffffffffffffffffff1673ffffffffffffffffffffffffffffffffffffffff163373ffffffffffffffffffffffffffffffffffffffff161461028e576040517f08c379a000000000000000000000000000000000000000000000000000000000815260040161028590611214565b60405180910390fd5b3373ffffffffffffffffffffffffffffffffffffffff168173ffffffffffffffffffffffffffffffffffffffff16036102fc576040517f08c379a00000000000000000000000000000000000000000000000000000000081526004016102f390611280565b60405180910390fd5b8073ffffffffffffffffffffffffffffffffffffffff1660008054906101000a900473ffffffffffffffffffffffffffffffffffffffff1673ffffffffffffffffffffffffffffffffffffffff167fd16d780da006a9cd00dd715aefc0ad41b753aaff634000ff8ea64d7e3f5159954260405161037991906112af565b60405180910390a3806000806101000a81548173ffffffffffffffffffffffffffffffffffffffff021916908373ffffffffffffffffffffffffffffffffffffffff16021790555050565b6000600160008373ffffffffffffffffffffffffffffffffffffffff1673ffffffffffffffffffffffffffffffffffffffff16815260200190815260200160002060009054906101000a900460ff169050919050565b60008054906101000a900473ffffffffffffffffffffffffffffffffffffffff1673ffffffffffffffffffffffffffffffffffffffff163373ffffffffffffffffffffffffffffffffffffffff16146104a8576040517f08c379a000000000000000000000000000000000000000000000000000000000815260040161049f90611214565b60405180910390fd5b600160008373ffffffffffffffffffffffffffffffffffffffff1673ffffffffffffffffffffffffffffffffffffffff16815260200190815260200160002060009054906101000a900460ff1615610535576040517f08c379a000000000000000000000000000000000000000000000000000000000815260040161052c9061133c565b60405180910390fd5b60018060008473ffffffffffffffffffffffffffffffffffffffff1673ffffffffffffffffffffffffffffffffffffffff16815260200190815260200160002060006101000a81548160ff021916908315150217905550600260405180604001604052808381526020018473ffffffffffffffffffffffffffffffffffffffff16815250908060018154018082558091505060019003906000526020600020906002020160009091909190915060008201518160000190816105f79190611568565b5060208201518160010160006101000a81548173ffffffffffffffffffffffffffffffffffffffff021916908373ffffffffffffffffffffffffffffffffffffffff16021790555050508173ffffffffffffffffffffffffffffffffffffffff167f9c554378284db96ffafa330494f71ed3f216eee6c4ee6a522c1ef66ed153735c824260405161068992919061163a565b60405180910390a26004600081819054906101000a900460ff16809291906106b090611699565b91906101000a81548160ff021916908360ff160217905550600360008473ffffffffffffffffffffffffffffffffffffffff1673ffffffffffffffffffffffffffffffffffffffff16815260200190815260200160002060006101000a81548160ff021916908360ff1602179055505050565b60016020528060005260406000206000915054906101000a900460ff1681565b60008054906101000a900473ffffffffffffffffffffffffffffffffffffffff1673ffffffffffffffffffffffffffffffffffffffff163373ffffffffffffffffffffffffffffffffffffffff16146107d1576040517f08c379a00000000000000000000000000000000000000000000000000000000081526004016107c890611214565b60405180910390fd5b600160008273ffffffffffffffffffffffffffffffffffffffff1673ffffffffffffffffffffffffffffffffffffffff16815260200190815260200160002060009054906101000a900460ff1661085d576040517f08c379a00000000000000000000000000000000000000000000000000000000081526004016108549061170e565b60405180910390fd5b6000600160008373ffffffffffffffffffffffffffffffffffffffff1673ffffffffffffffffffffffffffffffffffffffff16815260200190815260200160002060006101000a81548160ff021916908315150217905550600260016002805490506108c9919061172e565b815481106108da576108d9611762565b5b90600052602060002090600202016002600360008473ffffffffffffffffffffffffffffffffffffffff1673ffffffffffffffffffffffffffffffffffffffff16815260200190815260200160002060009054906101000a900460ff1660ff168154811061094b5761094a611762565b5b90600052602060002090600202016000820181600001908161096d91906117a7565b506001820160009054906101000a900473ffffffffffffffffffffffffffffffffffffffff168160010160006101000a81548173ffffffffffffffffffffffffffffffffffffffff021916908373ffffffffffffffffffffffffffffffffffffffff16021790555090505060028054806109ea576109e961188f565b5b600190038181906000526020600020906002020160008082016000610a0f9190610c99565b6001820160006101000a81549073ffffffffffffffffffffffffffffffffffffffff0219169055505090556004600081819054906101000a900460ff1680929190610a59906118be565b91906101000a81548160ff021916908360ff1602179055505050565b610a7d610cd9565b60028281548110610a9157610a90611762565b5b9060005260206000209060020201604051806040016040529081600082018054610aba9061138b565b80601f0160208091040260200160405190810160405280929190818152602001828054610ae69061138b565b8015610b335780601f10610b0857610100808354040283529160200191610b33565b820191906000526020600020905b815481529060010190602001808311610b1657829003601f168201915b505050505081526020016001820160009054906101000a900473ffffffffffffffffffffffffffffffffffffffff1673ffffffffffffffffffffffffffffffffffffffff1673ffffffffffffffffffffffffffffffffffffffff16815250509050919050565b60028181548110610ba957600080fd5b9060005260206000209060020201600091509050806000018054610bcc9061138b565b80601f0160208091040260200160405190810160405280929190818152602001828054610bf89061138b565b8015610c455780601f10610c1a57610100808354040283529160200191610c45565b820191906000526020600020905b815481529060010190602001808311610c2857829003601f168201915b5050505050908060010160009054906101000a900473ffffffffffffffffffffffffffffffffffffffff16905082565b60008054906101000a900473ffffffffffffffffffffffffffffffffffffffff1681565b508054610ca59061138b565b6000825580601f10610cb75750610cd6565b601f016020900490600052602060002090810190610cd59190610d09565b5b50565b604051806040016040528060608152602001600073ffffffffffffffffffffffffffffffffffffffff1681525090565b5b80821115610d22576000816000905550600101610d0a565b5090565b600060ff82169050919050565b610d3c81610d26565b82525050565b6000602082019050610d576000830184610d33565b92915050565b6000604051905090565b600080fd5b600080fd5b600073ffffffffffffffffffffffffffffffffffffffff82169050919050565b6000610d9c82610d71565b9050919050565b610dac81610d91565b8114610db757600080fd5b50565b600081359050610dc981610da3565b92915050565b600060208284031215610de557610de4610d67565b5b6000610df384828501610dba565b91505092915050565b60008115159050919050565b610e1181610dfc565b82525050565b6000602082019050610e2c6000830184610e08565b92915050565b600080fd5b600080fd5b6000601f19601f8301169050919050565b7f4e487b7100000000000000000000000000000000000000000000000000000000600052604160045260246000fd5b610e8582610e3c565b810181811067ffffffffffffffff82111715610ea457610ea3610e4d565b5b80604052505050565b6000610eb7610d5d565b9050610ec38282610e7c565b919050565b600067ffffffffffffffff821115610ee357610ee2610e4d565b5b610eec82610e3c565b9050602081019050919050565b82818337600083830152505050565b6000610f1b610f1684610ec8565b610ead565b905082815260208101848484011115610f3757610f36610e37565b5b610f42848285610ef9565b509392505050565b600082601f830112610f5f57610f5e610e32565b5b8135610f6f848260208601610f08565b91505092915050565b60008060408385031215610f8f57610f8e610d67565b5b6000610f9d85828601610dba565b925050602083013567ffffffffffffffff811115610fbe57610fbd610d6c565b5b610fca85828601610f4a565b9150509250929050565b6000819050919050565b610fe781610fd4565b8114610ff257600080fd5b50565b60008135905061100481610fde565b92915050565b6000602082840312156110205761101f610d67565b5b600061102e84828501610ff5565b91505092915050565b600081519050919050565b600082825260208201905092915050565b60005b83811015611071578082015181840152602081019050611056565b60008484015250505050565b600061108882611037565b6110928185611042565b93506110a2818560208601611053565b6110ab81610e3c565b840191505092915050565b6110bf81610d91565b82525050565b600060408301600083015184820360008601526110e2828261107d565b91505060208301516110f760208601826110b6565b508091505092915050565b6000602082019050818103600083015261111c81846110c5565b905092915050565b600082825260208201905092915050565b600061114082611037565b61114a8185611124565b935061115a818560208601611053565b61116381610e3c565b840191505092915050565b61117781610d91565b82525050565b600060408201905081810360008301526111978185611135565b90506111a6602083018461116e565b9392505050565b60006020820190506111c2600083018461116e565b92915050565b7f4e6f7420616e2061646d696e202d206163636573732064656e6965642e000000600082015250565b60006111fe601d83611124565b9150611209826111c8565b602082019050919050565b6000602082019050818103600083015261122d816111f1565b9050919050565b7f596f75206172652063757272656e742061646d696e2e00000000000000000000600082015250565b600061126a601683611124565b915061127582611234565b602082019050919050565b600060208201905081810360008301526112998161125d565b9050919050565b6112a981610fd4565b82525050565b60006020820190506112c460008301846112a0565b92915050565b7f54686973206164647265737320697320616c7265616479206d61726b6564206160008201527f732073746f72652e000000000000000000000000000000000000000000000000602082015250565b6000611326602883611124565b9150611331826112ca565b604082019050919050565b6000602082019050818103600083015261135581611319565b9050919050565b7f4e487b7100000000000000000000000000000000000000000000000000000000600052602260045260246000fd5b600060028204905060018216806113a357607f821691505b6020821081036113b6576113b561135c565b5b50919050565b60008190508160005260206000209050919050565b60006020601f8301049050919050565b600082821b905092915050565b60006008830261141e7fffffffffffffffffffffffffffffffffffffffffffffffffffffffffffffffff826113e1565b61142886836113e1565b95508019841693508086168417925050509392505050565b6000819050919050565b600061146561146061145b84610fd4565b611440565b610fd4565b9050919050565b6000819050919050565b61147f8361144a565b61149361148b8261146c565b8484546113ee565b825550505050565b600090565b6114a861149b565b6114b3818484611476565b505050565b5b818110156114d7576114cc6000826114a0565b6001810190506114b9565b5050565b601f82111561151c576114ed816113bc565b6114f6846113d1565b81016020851015611505578190505b611519611511856113d1565b8301826114b8565b50505b505050565b600082821c905092915050565b600061153f60001984600802611521565b1980831691505092915050565b6000611558838361152e565b9150826002028217905092915050565b61157182611037565b67ffffffffffffffff81111561158a57611589610e4d565b5b611594825461138b565b61159f8282856114db565b600060209050601f8311600181146115d257600084156115c0578287015190505b6115ca858261154c565b865550611632565b601f1984166115e0866113bc565b60005b82811015611608578489015182556001820191506020850194506020810190506115e3565b868310156116255784890151611621601f89168261152e565b8355505b6001600288020188555050505b505050505050565b600060408201905081810360008301526116548185611135565b905061166360208301846112a0565b9392505050565b7f4e487b7100000000000000000000000000000000000000000000000000000000600052601160045260246000fd5b60006116a482610d26565b915060ff82036116b7576116b661166a565b5b600182019050919050565b7f546869732061646472657373206973206e6f7420612073746f72652e00000000600082015250565b60006116f8601c83611124565b9150611703826116c2565b602082019050919050565b60006020820190508181036000830152611727816116eb565b9050919050565b600061173982610fd4565b915061174483610fd4565b925082820390508181111561175c5761175b61166a565b5b92915050565b7f4e487b7100000000000000000000000000000000000000000000000000000000600052603260045260246000fd5b6000815490506117a08161138b565b9050919050565b8181036117b557505061188d565b6117be82611791565b67ffffffffffffffff8111156117d7576117d6610e4d565b5b6117e1825461138b565b6117ec8282856114db565b6000601f83116001811461181b5760008415611809578287015490505b611813858261154c565b865550611886565b601f198416611829876113bc565b9650611834866113bc565b60005b8281101561185c57848901548255600182019150600185019450602081019050611837565b868310156118795784890154611875601f89168261152e565b8355505b6001600288020188555050505b5050505050505b565b7f4e487b7100000000000000000000000000000000000000000000000000000000600052603160045260246000fd5b60006118c982610d26565b9150600082036118dc576118db61166a565b5b60018203905091905056fea26469706673582212203b08bea87fc45d6126af8be005a621f7d903f386bce752392e571ee9cb00987064736f6c63430008120033",
  "devdoc": {
    "kind": "dev",
    "methods": {},
    "version": 1
  },
  "userdoc": {
    "kind": "user",
    "methods": {},
    "version": 1
  },
  "storageLayout": {
    "storage": [
      {
        "astId": 3788,
        "contract": "contracts/StoreAccessControl.sol:StoreAccessControl",
        "label": "admin",
        "offset": 0,
        "slot": "0",
        "type": "t_address"
      },
      {
        "astId": 3792,
        "contract": "contracts/StoreAccessControl.sol:StoreAccessControl",
        "label": "isVerifiedStore",
        "offset": 0,
        "slot": "1",
        "type": "t_mapping(t_address,t_bool)"
      },
      {
        "astId": 3817,
        "contract": "contracts/StoreAccessControl.sol:StoreAccessControl",
        "label": "stores",
        "offset": 0,
        "slot": "2",
        "type": "t_array(t_struct(Store)3813_storage)dyn_storage"
      },
      {
        "astId": 3821,
        "contract": "contracts/StoreAccessControl.sol:StoreAccessControl",
        "label": "addrToArrayIndex",
        "offset": 0,
        "slot": "3",
        "type": "t_mapping(t_address,t_uint8)"
      },
      {
        "astId": 3823,
        "contract": "contracts/StoreAccessControl.sol:StoreAccessControl",
        "label": "indexStoreEnumerator",
        "offset": 0,
        "slot": "4",
        "type": "t_uint8"
      }
    ],
    "types": {
      "t_address": {
        "encoding": "inplace",
        "label": "address",
        "numberOfBytes": "20"
      },
      "t_array(t_struct(Store)3813_storage)dyn_storage": {
        "base": "t_struct(Store)3813_storage",
        "encoding": "dynamic_array",
        "label": "struct StoreAccessControl.Store[]",
        "numberOfBytes": "32"
      },
      "t_bool": {
        "encoding": "inplace",
        "label": "bool",
        "numberOfBytes": "1"
      },
      "t_mapping(t_address,t_bool)": {
        "encoding": "mapping",
        "key": "t_address",
        "label": "mapping(address => bool)",
        "numberOfBytes": "32",
        "value": "t_bool"
      },
      "t_mapping(t_address,t_uint8)": {
        "encoding": "mapping",
        "key": "t_address",
        "label": "mapping(address => uint8)",
        "numberOfBytes": "32",
        "value": "t_uint8"
      },
      "t_string_storage": {
        "encoding": "bytes",
        "label": "string",
        "numberOfBytes": "32"
      },
      "t_struct(Store)3813_storage": {
        "encoding": "inplace",
        "label": "struct StoreAccessControl.Store",
        "members": [
          {
            "astId": 3810,
            "contract": "contracts/StoreAccessControl.sol:StoreAccessControl",
            "label": "sname",
            "offset": 0,
            "slot": "0",
            "type": "t_string_storage"
          },
          {
            "astId": 3812,
            "contract": "contracts/StoreAccessControl.sol:StoreAccessControl",
            "label": "saddress",
            "offset": 0,
            "slot": "1",
            "type": "t_address"
          }
        ],
        "numberOfBytes": "64"
      },
      "t_uint8": {
        "encoding": "inplace",
        "label": "uint8",
        "numberOfBytes": "1"
      }
    }
  }
}